{
  "_format": "hh-sol-artifact-1",
  "contractName": "MyFirstContract",
  "sourceName": "contracts/MyFirstContract.sol",
  "abi": [
    {
      "inputs": [
        {
          "internalType": "string",
          "name": "_name",
          "type": "string"
        }
      ],
      "stateMutability": "nonpayable",
      "type": "constructor"
    },
    {
      "inputs": [
        {
          "internalType": "string",
          "name": "_name",
          "type": "string"
        }
      ],
      "name": "changeName",
      "outputs": [],
      "stateMutability": "nonpayable",
      "type": "function"
    },
    {
      "inputs": [],
      "name": "getName",
      "outputs": [
        {
          "internalType": "string",
          "name": "",
          "type": "string"
        }
      ],
      "stateMutability": "view",
      "type": "function"
    }
  ],
  "bytecode": "0x60806040523480156200001157600080fd5b50604051620009bc380380620009bc833981810160405281019062000037919062000224565b6200006b7ffb3b173e73070876a829474e34bda46c6dbd65a4087036c946acdd4c920fcb8760001b620000f360201b60201c565b6200009f7fc36f804c11f56bbd0728269638066d691309745aa1ef326888c460ea97df36f860001b620000f360201b60201c565b620000d37fb25b5d2a390c7d8ea2e6e57e2d81adc3782a17e80e0158a3aba580fe7ab9a70960001b620000f360201b60201c565b8060009080519060200190620000eb929190620000f6565b5050620003f9565b50565b82805462000104906200030a565b90600052602060002090601f01602090048101928262000128576000855562000174565b82601f106200014357805160ff191683800117855562000174565b8280016001018555821562000174579182015b828111156200017357825182559160200191906001019062000156565b5b50905062000183919062000187565b5090565b5b80821115620001a257600081600090555060010162000188565b5090565b6000620001bd620001b7846200029e565b62000275565b905082815260208101848484011115620001dc57620001db620003d9565b5b620001e9848285620002d4565b509392505050565b600082601f830112620002095762000208620003d4565b5b81516200021b848260208601620001a6565b91505092915050565b6000602082840312156200023d576200023c620003e3565b5b600082015167ffffffffffffffff8111156200025e576200025d620003de565b5b6200026c84828501620001f1565b91505092915050565b60006200028162000294565b90506200028f828262000340565b919050565b6000604051905090565b600067ffffffffffffffff821115620002bc57620002bb620003a5565b5b620002c782620003e8565b9050602081019050919050565b60005b83811015620002f4578082015181840152602081019050620002d7565b8381111562000304576000848401525b50505050565b600060028204905060018216806200032357607f821691505b602082108114156200033a576200033962000376565b5b50919050565b6200034b82620003e8565b810181811067ffffffffffffffff821117156200036d576200036c620003a5565b5b80604052505050565b7f4e487b7100000000000000000000000000000000000000000000000000000000600052602260045260246000fd5b7f4e487b7100000000000000000000000000000000000000000000000000000000600052604160045260246000fd5b600080fd5b600080fd5b600080fd5b600080fd5b6000601f19601f8301169050919050565b6105b380620004096000396000f3fe608060405234801561001057600080fd5b50600436106100365760003560e01c806317d7de7c1461003b5780635353a2d814610059575b600080fd5b610043610075565b60405161005091906103c1565b60405180910390f35b610073600480360381019061006e919061033f565b61018b565b005b60606100a37f5cc3b8e1f40b2c8709c35432e3f78a031c7e4c4f1821e906d1b1d328d8c68dc860001b610229565b6100cf7f98ccbe7cadeae8c168b86d3fc20159e317420f4bc2b9205daf484ae37c67eaf460001b610229565b6100fb7fefffdde2c24bba6eb4261de7352bc1c00296f0729929a3efb303993ed0e9ecc060001b610229565b6000805461010890610497565b80601f016020809104026020016040519081016040528092919081815260200182805461013490610497565b80156101815780601f1061015657610100808354040283529160200191610181565b820191906000526020600020905b81548152906001019060200180831161016457829003601f168201915b5050505050905090565b6101b77fbaabfe5e6b176de9b9f60004d9c4895449301d122aa01bd8d0658f90bb84563a60001b610229565b6101e37f5cac01f6638d888ef2546a0d2d031b2e58c2bd339aa78180ef78dec6a9acaf8360001b610229565b61020f7f1b802a235867daa420839c26f85e88de80dcc74bc5b1eb3761498e21f11997e360001b610229565b806000908051906020019061022592919061022c565b5050565b50565b82805461023890610497565b90600052602060002090601f01602090048101928261025a57600085556102a1565b82601f1061027357805160ff19168380011785556102a1565b828001600101855582156102a1579182015b828111156102a0578251825591602001919060010190610285565b5b5090506102ae91906102b2565b5090565b5b808211156102cb5760008160009055506001016102b3565b5090565b60006102e26102dd84610408565b6103e3565b9050828152602081018484840111156102fe576102fd61055d565b5b610309848285610455565b509392505050565b600082601f83011261032657610325610558565b5b81356103368482602086016102cf565b91505092915050565b60006020828403121561035557610354610567565b5b600082013567ffffffffffffffff81111561037357610372610562565b5b61037f84828501610311565b91505092915050565b600061039382610439565b61039d8185610444565b93506103ad818560208601610464565b6103b68161056c565b840191505092915050565b600060208201905081810360008301526103db8184610388565b905092915050565b60006103ed6103fe565b90506103f982826104c9565b919050565b6000604051905090565b600067ffffffffffffffff82111561042357610422610529565b5b61042c8261056c565b9050602081019050919050565b600081519050919050565b600082825260208201905092915050565b82818337600083830152505050565b60005b83811015610482578082015181840152602081019050610467565b83811115610491576000848401525b50505050565b600060028204905060018216806104af57607f821691505b602082108114156104c3576104c26104fa565b5b50919050565b6104d28261056c565b810181811067ffffffffffffffff821117156104f1576104f0610529565b5b80604052505050565b7f4e487b7100000000000000000000000000000000000000000000000000000000600052602260045260246000fd5b7f4e487b7100000000000000000000000000000000000000000000000000000000600052604160045260246000fd5b600080fd5b600080fd5b600080fd5b600080fd5b6000601f19601f830116905091905056fea2646970667358221220dc04833688644fece0937c3d3e479b98407e47e7556d715587c02476200136e164736f6c63430008050033",
  "linkReferences": {},
  "deployedLinkReferences": {}
}